:020000040800F2
:1000000000280020710B0008150B00081B0B0008CE
:10001000210B0008270B00082D0B00080000000032
:10002000000000000000000000000000330B00088A
:100030003F0B0008000000004B0B0008570B0008A6
:10004000B90B0008B90B0008B90B0008B90B000880
:10005000B90B0008B90B0008B90B0008B90B000870
:10006000B90B0008B90B0008B90B0008B90B000860
:10007000B90B0008B90B0008B90B0008B90B000850
:10008000B90B0008B90B0008B90B0008B90B000840
:10009000B90B0008B90B0008B90B0008B90B000830
:1000A000B90B0008B90B0008B90B0008B90B000820
:1000B000B90B0008B90B000800000000B90B0008DC
:1000C000B90B00080000000000000000B90B000898
:1000D00000000000B90B0008B90B00080000000088
:1000E000B90B0008B90B0008B90B000800000000AC
:1000F0000000000000000000000000000000000000
:0C01000000000000000000005FF808F1A3
:10010C0010B5054C237833B9044B13B10448AFF345
:10011C0000800123237010BD0C00002000000000A3
:10012C00C419000808B5034B1BB103490348AFF3CE
:10013C00008008BD0000000010000020C419000859
:10014C0080B582B000AF7860C7F800C07B68002B28
:10015C0023D100220121C24801F00EF80022022115
:10016C00BF4801F009F800220421BD4801F004F851
:10017C0000220821BA4800F0FFFF00221021B848E5
:10018C0000F0FAFF00222021B54800F0F5FF012213
:10019C004021B34800F0F0FF5DE17B68012B23D1D7
:1001AC0001220121AE4800F0E7FF00220221AC48F9
:1001BC0000F0E2FF00220421A94800F0DDFF01223B
:1001CC000821A74800F0D8FF01221021A44800F014
:1001DC00D3FF01222021A24800F0CEFF01224021B2
:1001EC009F4800F0C9FF36E17B68022B23D1002227
:1001FC0001219B4800F0C0FF00220221984800F02A
:10020C00BBFF01220421964800F0B6FF0022082112
:10021C00934800F0B1FF00221021914800F0ACFF90
:10022C00012220218E4800F0A7FF002240218C489B
:10023C0000F0A2FF0FE17B68032B23D100220121E8
:10024C00874800F099FF00220221854800F094FFB6
:10025C0000220421824800F08FFF002208218048F0
:10026C0000F08AFF012210217D4800F085FF012259
:10027C0020217B4800F080FF00224021784800F0CC
:10028C007BFFE8E07B68042B23D101220121744819
:10029C0000F072FF00220221714800F06DFF002275
:1002AC0004216F4800F068FF012208216C4800F01F
:1002BC0063FF012210216A4800F05EFF002220211A
:1002CC00674800F059FF00224021654800F054FFB8
:1002DC00C1E07B68052B23D100220121604800F08E
:1002EC004BFF012202215E4800F046FF0022042150
:1002FC005B4800F041FF00220821594800F03CFF08
:10030C0001221021564800F037FF002220215448CA
:10031C0000F032FF00224021514800F02DFF9AE0FE
:10032C007B68062B23D1002201214D4800F024FFCD
:10033C00012202214A4800F01FFF002204214848F4
:10034C0000F01AFF00220821454800F015FF00229A
:10035C001021434800F010FF00222021404800F0FB
:10036C000BFF002240213E4800F006FF73E07B6843
:10037C00072B23D100220121394800F0FDFE002279
:10038C000221374800F0F8FE00220421344800F026
:10039C00F3FE01220821324800F0EEFE012210216A
:1003AC002F4800F0E9FE012220212D4800F0E4FE48
:1003BC00012240212A4800F0DFFE4CE07B68082B2C
:1003CC0023D100220121264800F0D6FE0022022172
:1003DC00234800F0D1FE00220421214800F0CCFE7D
:1003EC00002208211E4800F0C7FE002210211C48E4
:1003FC0000F0C2FE00222021194800F0BDFE0022B0
:10040C004021174800F0B8FE25E07B68092B22D16B
:10041C0000220121124800F0AFFE002202211048F8
:10042C0000F0AAFE002204210D4800F0A5FE0022D7
:10043C0008210B4800F0A0FE01221021084800F012
:10044C009BFE00222021064800F096FE002240214F
:10045C00034800F091FE00BF0837BD4680BD00BFC9
:10046C00000C014080B582B000AF07F110033B6077
:10047C0000F09EFB00F080FA00F0BAFA0A237B60D1
:10048C007B68052B4CDD00220221524800F074FEE3
:10049C00012204214F4800F06FFE012208214D4833
:1004AC0000F06AFE7B68063B3A4694461846FFF716
:1004BC0047FE7B68072B16DD01221021454800F012
:1004CC005BFE01222021434800F056FE0022402111
:1004DC00404800F051FE7B68083B3A46944618466B
:1004EC0000F07AF818E07B68052B15DD012210214D
:1004FC00384800F041FE00222021364800F03CFE36
:10050C0001224021334800F037FE7B68063B3A4617
:10051C009446184600F060F87B68013B7B604EE027
:10052C007B68002B4BDD002210212A4800F024FEB2
:10053C0001222021274800F01FFE012240212548DE
:10054C0000F01AFE7B68013B3A469446184600F0D0
:10055C0043F87B68022B16DD012202211D4800F0B6
:10056C000BFE012204211B4800F006FE002208218C
:10057C00184800F001FE7B68033B3A469446184647
:10058C00FFF7DEFD18E07B68002B15DD0122022150
:10059C00104800F0F1FD002204210E4800F0ECFDA3
:1005AC00012208210B4800F0E7FD7B68013B3A462D
:1005BC0094461846FFF7C4FD7B68013B7B607B6863
:1005CC00002B01D10A237B604FF47A7000F052FBB0
:1005DC0056E700BF0008014080B582B000AF7860DC
:1005EC00C7F800C07B68002B29D100228021C848A5
:1005FC0000F0C2FD00224FF48071C54800F0BCFD34
:10060C0000224FF40071C24800F0B6FD00224FF4F6
:10061C008061BF4800F0B0FD00224FF40061BC487F
:10062C0000F0AAFD00224FF48051B94800F0A4FD5F
:10063C0001224FF40051B64800F09EFD96E17B6814
:10064C00012B29D101228021B14800F095FD002217
:10065C004FF48071AE4800F08FFD00224FF4007112
:10066C00AB4800F089FD01224FF48061A84800F0EE
:10067C0083FD01224FF40061A54800F07DFD0122AD
:10068C004FF48051A24800F077FD01224FF4005145
:10069C009F4800F071FD69E17B68022B29D1002293
:1006AC0080219B4800F068FD00224FF4807198482F
:1006BC0000F062FD01224FF40071954800F05CFDE2
:1006CC0000224FF48061924800F056FD00224FF456
:1006DC0000618F4800F050FD01224FF480518C488E
:1006EC0000F04AFD00224FF40051894800F044FD0F
:1006FC003CE17B68032B29D100228021844800F047
:10070C003BFD00224FF48071814800F035FD002242
:10071C004FF400717E4800F02FFD00224FF48061F1
:10072C007B4800F029FD01224FF40061784800F06D
:10073C0023FD01224FF48051754800F01DFD00226D
:10074C004FF40051724800F017FD0FE17B68042B49
:10075C0029D1012280216E4800F00EFD00224FF4B9
:10076C0080716B4800F008FD00224FF4007168485E
:10077C0000F002FD01224FF48061654800F0FCFCA2
:10078C0001224FF40061624800F0F6FC00224FF4A5
:10079C0080515F4800F0F0FC00224FF400515C489F
:1007AC0000F0EAFCE2E07B68052B29D100228021D5
:1007BC00574800F0E1FC01224FF48071544800F0DE
:1007CC00DBFC00224FF40071514800F0D5FC0022F4
:1007DC004FF480614E4800F0CFFC01224FF40061D1
:1007EC004B4800F0C9FC00224FF48051484800F0FF
:1007FC00C3FC00224FF40051454800F0BDFCB5E0AD
:10080C007B68062B29D100228021414800F0B4FCE2
:10081C0001224FF480713E4800F0AEFC00224FF4F0
:10082C0000713B4800F0A8FC00224FF4806138486E
:10083C0000F0A2FC00224FF40061354800F09CFC53
:10084C0000224FF48051324800F096FC00224FF405
:10085C0000512F4800F090FC88E07B68072B29D1D1
:10086C00002280212A4800F087FC00224FF480717E
:10087C00274800F081FC00224FF40071244800F05E
:10088C007BFC01224FF48061214800F075FC0122B1
:10089C004FF400611E4800F06FFC01224FF48051B0
:1008AC001B4800F069FC01224FF40051184800F07D
:1008BC0063FC5BE07B68082B2CD100228021144860
:1008CC0000F05AFC00224FF48071114800F054FCE7
:1008DC0000224FF400710E4800F04EFC00224FF441
:1008EC0080610B4800F048FC00224FF4006108487E
:1008FC0000F042FC00224FF48051054800F03CFC13
:10090C0000224FF40051024800F036FC2EE000BFEC
:10091C00000C01407B68092B28D10022802115484E
:10092C0000F02AFC00224FF48071124800F024FCE5
:10093C0000224FF400710F4800F01EFC00224FF40F
:10094C0080610C4800F018FC01224FF4006109484A
:10095C0000F012FC00224FF48051064800F00CFC11
:10096C0000224FF40051034800F006FC00BF08378A
:10097C00BD4680BD000C014080B590B000AF07F1C2
:10098C00180328220021184601F00EF83B1D002206
:10099C001A605A609A60DA601A610223BB61012303
:1009AC00BB621023FB6200237B6307F1180318461C
:1009BC0000F0FAFB0346002B01D000F06DF80F237A
:1009CC007B600023BB600023FB6000233B610023A2
:1009DC007B613B1D0021184600F066FE0346002B90
:1009EC0001D000F059F800BF4037BD4680BD000073
:1009FC0080B586B000AF07F1080300221A605A6078
:100A0C009A60DA60214B9B69204A43F0040393619E
:100A1C001E4B9B6903F004037B607B681B4B9B693B
:100A2C001A4A43F008039361184B9B6903F00803BF
:100A3C003B603B6800227E21154800F09DFB0022A4
:100A4C0043F6FF71134800F097FB7E23BB60012334
:100A5C00FB6000233B6102237B6107F1080319460D
:100A6C000B4800F00FFA43F6FF73BB600123FB60E9
:100A7C0000233B6102237B6107F1080319460548FB
:100A8C0000F000FA00BF1837BD4680BD00100240D0
:100A9C0000080140000C014080B400AF72B600BFEA
:100AAC00FEE7000080B485B000AF154B9B69144A7B
:100ABC0043F001039361124B9B6903F00103BB608C
:100ACC00BB680F4BDB690E4A43F08053D3610C4B70
:100ADC00DB6903F080537B607B680A4B5B68FB60CF
:100AEC00FB6823F0E063FB60FB6843F08063FB6012
:100AFC00044AFB68536000BF1437BD4680BC704786
:100B0C00001002400000014080B400AFFEE780B44A
:100B1C0000AFFEE780B400AFFEE780B400AFFEE7A5
:100B2C0080B400AFFEE780B400AF00BFBD4680BC10
:100B3C00704780B400AF00BFBD4680BC704780B426
:100B4C0000AF00BFBD4680BC704780B500AF00F061
:100B5C0075F800BF80BD80B400AF00BFBD4680BC3F
:100B6C0070470000FFF7F7FF0B480C490C4A0023B5
:100B7C0002E0D458C4500433C4188C42F9D3094A47
:100B8C00094C002301E013600432A242FBD300F0B5
:100B9C00E7FEFFF767FC7047000000200C00002008
:100BAC00081A00080C0000202C000020FEE70000B2
:100BBC0080B500AF084B1B68074A43F01003136065
:100BCC00032000F02BF90F2000F008F8FFF76AFF64
:100BDC000023184680BD00BF0020024080B582B0C3
:100BEC0000AF7860124B1A68124B1B7819464FF401
:100BFC007A73B3FBF1F3B2FBF3F3184600F035F95B
:100C0C000346002B01D001230EE07B680F2B0AD882
:100C1C00002279684FF0FF3000F00BF9064A7B6830
:100C2C001360002300E0012318460837BD4680BD41
:100C3C0000000020080000200400002080B400AF59
:100C4C00054B1B781A46054B1B681344034A13606B
:100C5C0000BFBD4680BC7047080000202800002063
:100C6C0080B400AF024B1B681846BD4680BC704771
:100C7C002800002080B584B000AF7860FFF7F0FF4B
:100C8C00B8607B68FB60FB68B3F1FF3F05D00A4B93
:100C9C001B781A46FB681344FB6000BFFFF7E0FFAC
:100CAC000246BB68D31AFA689A42F7D800BF00BF55
:100CBC001037BD4680BD00BF0800002080B485B051
:100CCC0000AF78607B6803F00703FB600C4BDB68BC
:100CDC00BB60BA684FF6FF031340BB60FB681A0297
:100CEC00BB68134343F0BF6343F40033BB60044A57
:100CFC00BB68D36000BF1437BD4680BC704700BFD3
:100D0C0000ED00E080B400AF044BDB681B0A03F07D
:100D1C0007031846BD4680BC704700BF00ED00E0DD
:100D2C0080B483B000AF03463960FB7197F907308C
:100D3C00002B0ADB3B68DAB20C4997F90730120139
:100D4C00D2B20B4483F800230AE03B68DAB20849BC
:100D5C00FB7903F00F03043B1201D2B20B441A7659
:100D6C0000BF0C37BD4680BC704700BF00E100E0FF
:100D7C0000ED00E080B489B000AFF860B9607A6033
:100D8C00FB6803F00703FB61FB69C3F10703042B4A
:100D9C0028BF0423BB61FB690433062B02D9FB6912
:100DAC00033B00E000237B614FF0FF32BB6902FA8A
:100DBC0003F3DA43BB681A407B699A404FF0FF316A
:100DCC007B6901FA03F3D9437B680B401343184644
:100DDC002437BD4680BC704780B582B000AF7860C8
:100DEC007B68013BB3F1807F01D301230FE00A4AFA
:100DFC007B68013B53600F214FF0FF30FFF790FFF2
:100E0C00054B00229A60044B07221A6000231846F7
:100E1C000837BD4680BD00BF10E000E080B582B051
:100E2C0000AF78607868FFF749FF00BF0837BD4610
:100E3C0080BD80B586B000AF0346B9607A60FB73A5
:100E4C0000237B61FFF75EFF78617A68B968786987
:100E5C00FFF790FF024697F90F3011461846FFF73F
:100E6C005FFF00BF1837BD4680BD80B582B000AFB4
:100E7C0078607868FFF7B0FF034618460837BD4620
:100E8C0080BD000080B48BB000AF78603960002367
:100E9C007B6200233B6248E101227B6A02FA03F386
:100EAC00FB613B681B68FA691340BB61BA69FB695B
:100EBC009A4240F037813B685B68A34A93425ED00C
:100ECC00A14A934275D8A14A934258D09F4A934263
:100EDC006FD89F4A934252D09D4A934269D89D4AFB
:100EEC0093424CD09B4A934263D89B4A934246D040
:100EFC00994A93425DD8122B2AD8122B59D801A2A9
:100F0C0052F823F08B0F0008650F0008770F0008CC
:100F1C00B90F0008BF0F0008BF0F0008BF0F000873
:100F2C00BF0F0008BF0F0008BF0F0008BF0F00085D
:100F3C00BF0F0008BF0F0008BF0F0008BF0F00084D
:100F4C00BF0F0008BF0F00086D0F0008810F0008CD
:100F5C00824A934213D02CE03B68DB683B6229E069
:100F6C003B68DB6804333B6224E03B68DB68083396
:100F7C003B621FE03B68DB680C333B621AE03B686A
:100F8C009B68002B02D104233B6213E03B689B68F7
:100F9C00012B05D108233B627B68FA691A6109E0D1
:100FAC0008233B627B68FA695A6103E000233B62C9
:100FBC0000E000BFBB69FF2B01D87B6801E07B68B8
:100FCC0004337B61BB69FF2B02D87B6A9B0002E078
:100FDC007B6A083B9B003B617B691A680F213B696C
:100FEC0001FA03F3DB431A40396A3B6901FA03F354
:100FFC001A437B691A603B685B6803F08053002BD3
:10100C0000F09080564B9B69554A43F00103936165
:10101C00534B9B6903F00103BB60BB68514A7B6A6D
:10102C009B08023352F82330FB607B6A03F0030306
:10103C009B000F2202FA03F3DB43FA681340FB60B8
:10104C007B68494A93420DD07B68484A934207D04B
:10105C007B68474A934201D1022304E0032302E058
:10106C00012300E000237A6A02F00302920093400D
:10107C00FA681343FB603B497B6A9B080233FA68AE
:10108C0041F823203B685B6803F48013002B06D0E7
:10109C00384B9A683749BB6913438B6006E0354B74
:1010AC009A68BB69DB43334913408B603B685B68D0
:1010BC0003F40013002B06D02E4BDA682D49BB69C4
:1010CC001343CB6006E02B4BDA68BB69DB43294941
:1010DC001340CB603B685B6803F40033002B06D0F5
:1010EC00244B5A682349BB6913434B6006E0214BE0
:1010FC005A68BB69DB431F4913404B603B685B6814
:10110C0003F48033002B06D01A4B1A681949BB69BB
:10111C0013430B6006E0174B1A68BB69DB43154998
:10112C0013400B607B6A01337B623B681A687B6AF5
:10113C0022FA03F3002B7FF4AFAE00BF00BF2C37B5
:10114C00BD4680BC704700BF00003210000031105B
:10115C0000002210000021100000121000001110DD
:10116C00001002400000014000080140000C01404A
:10117C00001001400004014080B483B000AF7860DF
:10118C000B467B8013467B707B78002B03D07A88D0
:10119C007B681A6103E07B881A047B681A6100BFC4
:1011AC000C37BD4680BC704780B586B000AF786008
:1011BC007B68002B01D101236CE27B681B6803F078
:1011CC000103002B00F08780924B5B6803F00C034B
:1011DC00042B0CD08F4B5B6803F00C03082B12D143
:1011EC008C4B5B6803F48033B3F5803F0BD1894B98
:1011FC001B6803F40033002B6CD07B685B68002BFE
:10120C0068D1012346E27B685B68B3F5803F06D169
:10121C00804B1B687F4A43F4803313602EE07B685D
:10122C005B68002B0CD17B4B1B687A4A23F4803310
:10123C001360784B1B68774A23F4802313601DE0FE
:10124C007B685B68B3F5A02F0CD1724B1B68714A9D
:10125C0043F4802313606F4B1B686E4A43F4803356
:10126C0013600BE06B4B1B686A4A23F480331360EA
:10127C00684B1B68674A23F4802313607B685B68A8
:10128C00002B13D0FFF7ECFC386108E0FFF7E8FC0B
:10129C0002463B69D31A642B01D90323FAE15D4B57
:1012AC001B6803F40033002BF0D014E0FFF7D8FCDC
:1012BC00386108E0FFF7D4FC02463B69D31A642B73
:1012CC0001D90323E6E1534B1B6803F40033002BD5
:1012DC00F0D100E000BF7B681B6803F00203002B19
:1012EC0063D04C4B5B6803F00C03002B0BD0494BC9
:1012FC005B6803F00C03082B1CD1464B5B6803F4B2
:10130C008033002B16D1434B1B6803F00203002BD8
:10131C0005D07B681B69012B01D00123BAE13D4B41
:10132C001B6823F0F8027B685B69DB0039491343C7
:10133C000B603AE07B681B69002B20D0364B0122F6
:10134C001A60FFF78DFC386108E0FFF789FC024654
:10135C003B69D31A022B01D903239BE12D4B1B684C
:10136C0003F00203002BF0D02A4B1B6823F0F80289
:10137C007B685B69DB00274913430B6015E0264B48
:10138C0000221A60FFF76CFC386108E0FFF768FC7C
:10139C0002463B69D31A022B01D903237AE11D4B78
:1013AC001B6803F00203002BF0D17B681B6803F071
:1013BC000803002B3AD07B689B69002B19D0174B84
:1013CC0001221A60FFF74CFC386108E0FFF748FC7B
:1013DC0002463B69D31A022B01D903235AE10D4B68
:1013EC005B6A03F00203002BF0D0012000F09AFAA4
:1013FC001CE00A4B00221A60FFF732FC38610FE048
:10140C00FFF72EFC02463B69D31A022B08D90323A3
:10141C0040E100BF00100240000042428004424202
:10142C009E4B5B6A03F00203002BE9D17B681B68BF
:10143C0003F00403002B00F0A6800023FB75974BF0
:10144C00DB6903F08053002B0DD1944BDB69934A7D
:10145C0043F08053D361914BDB6903F08053BB6045
:10146C00BB680123FB758E4B1B6803F48073002B48
:10147C0018D18B4B1B688A4A43F480731360FFF7B7
:10148C00EFFB386108E0FFF7EBFB02463B69D31A30
:10149C00642B01D90323FDE0814B1B6803F480739B
:1014AC00002BF0D07B68DB68012B06D17B4B1B6AD1
:1014BC007A4A43F0010313622DE07B68DB68002B52
:1014CC000CD1764B1B6A754A23F001031362734BE4
:1014DC001B6A724A23F0040313621CE07B68DB680E
:1014EC00052B0CD16D4B1B6A6C4A43F00403136241
:1014FC006A4B1B6A694A43F0010313620BE0674BAA
:10150C001B6A664A23F001031362644B1B6A634A2D
:10151C0023F0040313627B68DB68002B15D0FFF704
:10152C009FFB38610AE0FFF79BFB02463B69D31A2D
:10153C0041F28832934201D90323ABE0574B1B6A2B
:10154C0003F00203002BEED014E0FFF789FB3861A7
:10155C000AE0FFF785FB02463B69D31A41F2883259
:10156C00934201D9032395E04C4B1B6A03F0020311
:10157C00002BEED1FB7D012B05D1484BDB69474A93
:10158C0023F08053D3617B68DB69002B00F08180F2
:10159C00424B5B6803F00C03082B61D07B68DB6962
:1015AC00022B46D13F4B00221A60FFF759FB3861E2
:1015BC0008E0FFF755FB02463B69D31A022B01D911
:1015CC00032367E0354B1B6803F00073002BF0D14D
:1015DC007B681B6AB3F5803F08D1304B5B6823F402
:1015EC0000327B689B682D4913434B602B4B5B6827
:1015FC0023F474127B68196A7B685B6A0B43274976
:10160C0013434B60274B01221A60FFF729FB38610B
:10161C0008E0FFF725FB02463B69D31A022B01D9E0
:10162C00032337E01D4B1B6803F00073002BF0D035
:10163C002FE01C4B00221A60FFF712FB386108E008
:10164C00FFF70EFB02463B69D31A022B01D9032389
:10165C0020E0124B1B6803F00073002BF0D118E054
:10166C007B68DB69012B01D1012313E00B4B5B6819
:10167C00FB60FB6803F480327B681B6A9A4206D1DC
:10168C00FB6803F470127B685B6A9A4201D00123F9
:10169C0000E0002318461837BD4680BD00100240FC
:1016AC00007000406000424280B584B000AF7860AA
:1016BC0039607B68002B01D10123D0E06A4B1B6899
:1016CC0003F007033A689A4210D9674B1B6823F062
:1016DC00070265493B6813430B60634B1B6803F0BF
:1016EC0007033A689A4201D00123B8E07B681B6873
:1016FC0003F00203002B20D07B681B6803F004036B
:10170C00002B05D0594B5B68584A43F4E063536097
:10171C007B681B6803F00803002B05D0534B5B68F8
:10172C00524A43F460535360504B5B6823F0F00211
:10173C007B689B684D4913434B607B681B6803F0C7
:10174C000103002B40D07B685B68012B07D1474B12
:10175C001B6803F40033002B15D101237FE07B6859
:10176C005B68022B07D1414B1B6803F00073002B05
:10177C0009D1012373E03D4B1B6803F00203002BDE
:10178C0001D101236BE0394B5B6823F003027B68CA
:10179C005B68364913434B60FFF762FAF8600AE066
:1017AC00FFF75EFA0246FB68D31A41F28832934285
:1017BC0001D9032353E02D4B5B6803F00C027B68CB
:1017CC005B689B009A42EBD1274B1B6803F0070325
:1017DC003A689A4210D2244B1B6823F00702224924
:1017EC003B6813430B60204B1B6803F007033A68FC
:1017FC009A4201D0012332E07B681B6803F004039A
:10180C00002B08D0194B5B6823F4E0627B68DB6823
:10181C00164913434B607B681B6803F00803002BCD
:10182C0009D0124B5B6823F460527B681B69DB00A8
:10183C000E4913434B6000F021F802460B4B5B68DA
:10184C001B0903F00F030A49CB5C22FA03F3094A84
:10185C001360094B1B681846FFF7C0F900231846A4
:10186C001037BD4680BD00BF002002400010024072
:10187C00DC190008000000200400002080B487B0B0
:10188C0000AF0023FB600023BB6000237B610023BF
:10189C007B6000233B611E4B5B68FB60FB6803F0C5
:1018AC000C03042B02D0082B03D027E0194B3B610F
:1018BC0027E0FB689B0C03F00F03174AD35C7B609B
:1018CC00FB6803F48033002B10D0114B5B685B0C6E
:1018DC0003F00103114AD35CBB607B680D4A02FB29
:1018EC0003F2BB68B2FBF3F37B6104E07B680C4A48
:1018FC0002FB03F37B617B693B6102E0054B3B61BF
:10190C0000BF3B6918461C37BD4680BC704700BF02
:10191C000010024000127A00EC190008FC190008B3
:10192C0000093D0080B485B000AF78600A4B1B689D
:10193C000A4AA2FB03235B0A7A6802FB03F3FB60EF
:10194C0000BFFB685A1EFA60002BF9D100BF00BF24
:10195C001437BD4680BC704700000020D34D621088
:10196C0070B500260C4D0D4C641BA410A64209D179
:10197C0000F022F800260A4D0A4C641BA410A64263
:10198C0005D170BD55F8043B98470136EEE755F884
:10199C00043B98470136F2E7001A0008001A0008C9
:1019AC00001A0008041A000803460244934200D1AE
:1019BC00704703F8011BF9E7F8B500BFF8BC08BC89
:1019CC009E467047F8B500BFF8BC08BC9E467047F1
:1019DC0000000000000000000102030406070809D3
:1019EC0002030405060708090A0B0C0D0E0F101054
:0419FC0001020000E4
:041A000031010008A8
:041A04000D010008C8
:0C1A08000024F4001000000001000000A9
:0400000508000B7173
:00000001FF
